{
  "_format": "hh-sol-artifact-1",
  "contractName": "AdvancedLottery",
  "sourceName": "contracts/EasyBet.sol",
  "abi": [
    {
      "inputs": [
        {
          "internalType": "address",
          "name": "_lotteryToken",
          "type": "address"
        },
        {
          "internalType": "address",
          "name": "_lotteryTicket",
          "type": "address"
        }
      ],
      "stateMutability": "nonpayable",
      "type": "constructor"
    },
    {
      "inputs": [
        {
          "internalType": "address",
          "name": "owner",
          "type": "address"
        }
      ],
      "name": "OwnableInvalidOwner",
      "type": "error"
    },
    {
      "inputs": [
        {
          "internalType": "address",
          "name": "account",
          "type": "address"
        }
      ],
      "name": "OwnableUnauthorizedAccount",
      "type": "error"
    },
    {
      "inputs": [],
      "name": "ReentrancyGuardReentrantCall",
      "type": "error"
    },
    {
      "anonymous": false,
      "inputs": [
        {
          "indexed": false,
          "internalType": "address",
          "name": "user",
          "type": "address"
        },
        {
          "indexed": false,
          "internalType": "uint256",
          "name": "amount",
          "type": "uint256"
        }
      ],
      "name": "EthClaimed",
      "type": "event"
    },
    {
      "anonymous": false,
      "inputs": [
        {
          "indexed": true,
          "internalType": "address",
          "name": "previousOwner",
          "type": "address"
        },
        {
          "indexed": true,
          "internalType": "address",
          "name": "newOwner",
          "type": "address"
        }
      ],
      "name": "OwnershipTransferred",
      "type": "event"
    },
    {
      "anonymous": false,
      "inputs": [
        {
          "indexed": true,
          "internalType": "uint256",
          "name": "projectId",
          "type": "uint256"
        },
        {
          "indexed": true,
          "internalType": "uint256",
          "name": "ticketId",
          "type": "uint256"
        },
        {
          "indexed": false,
          "internalType": "uint256",
          "name": "amount",
          "type": "uint256"
        },
        {
          "indexed": false,
          "internalType": "address",
          "name": "winner",
          "type": "address"
        }
      ],
      "name": "PrizeClaimed",
      "type": "event"
    },
    {
      "anonymous": false,
      "inputs": [
        {
          "indexed": false,
          "internalType": "uint256",
          "name": "projectId",
          "type": "uint256"
        },
        {
          "indexed": false,
          "internalType": "uint256",
          "name": "totalPrizePool",
          "type": "uint256"
        },
        {
          "indexed": false,
          "internalType": "uint256",
          "name": "totalWinningAmount",
          "type": "uint256"
        },
        {
          "indexed": false,
          "internalType": "uint256",
          "name": "contractBalance",
          "type": "uint256"
        }
      ],
      "name": "PrizeDistributionDebug",
      "type": "event"
    },
    {
      "anonymous": false,
      "inputs": [
        {
          "indexed": true,
          "internalType": "uint256",
          "name": "projectId",
          "type": "uint256"
        },
        {
          "indexed": false,
          "internalType": "string",
          "name": "title",
          "type": "string"
        },
        {
          "indexed": false,
          "internalType": "address",
          "name": "creator",
          "type": "address"
        }
      ],
      "name": "ProjectCreated",
      "type": "event"
    },
    {
      "anonymous": false,
      "inputs": [
        {
          "indexed": true,
          "internalType": "uint256",
          "name": "projectId",
          "type": "uint256"
        },
        {
          "indexed": false,
          "internalType": "uint256",
          "name": "winningOption",
          "type": "uint256"
        }
      ],
      "name": "ProjectFinished",
      "type": "event"
    },
    {
      "anonymous": false,
      "inputs": [
        {
          "indexed": true,
          "internalType": "uint256",
          "name": "orderId",
          "type": "uint256"
        },
        {
          "indexed": true,
          "internalType": "uint256",
          "name": "ticketId",
          "type": "uint256"
        },
        {
          "indexed": false,
          "internalType": "uint256",
          "name": "price",
          "type": "uint256"
        },
        {
          "indexed": false,
          "internalType": "address",
          "name": "seller",
          "type": "address"
        }
      ],
      "name": "SellOrderCreated",
      "type": "event"
    },
    {
      "anonymous": false,
      "inputs": [
        {
          "indexed": true,
          "internalType": "uint256",
          "name": "projectId",
          "type": "uint256"
        },
        {
          "indexed": true,
          "internalType": "uint256",
          "name": "ticketId",
          "type": "uint256"
        },
        {
          "indexed": false,
          "internalType": "uint256",
          "name": "optionId",
          "type": "uint256"
        },
        {
          "indexed": false,
          "internalType": "uint256",
          "name": "amount",
          "type": "uint256"
        },
        {
          "indexed": false,
          "internalType": "address",
          "name": "buyer",
          "type": "address"
        }
      ],
      "name": "TicketPurchased",
      "type": "event"
    },
    {
      "anonymous": false,
      "inputs": [
        {
          "indexed": true,
          "internalType": "uint256",
          "name": "orderId",
          "type": "uint256"
        },
        {
          "indexed": true,
          "internalType": "uint256",
          "name": "ticketId",
          "type": "uint256"
        },
        {
          "indexed": false,
          "internalType": "address",
          "name": "from",
          "type": "address"
        },
        {
          "indexed": false,
          "internalType": "address",
          "name": "to",
          "type": "address"
        },
        {
          "indexed": false,
          "internalType": "uint256",
          "name": "price",
          "type": "uint256"
        }
      ],
      "name": "TicketSold",
      "type": "event"
    },
    {
      "inputs": [
        {
          "internalType": "uint256",
          "name": "_orderId",
          "type": "uint256"
        }
      ],
      "name": "buyFromOrder",
      "outputs": [],
      "stateMutability": "payable",
      "type": "function"
    },
    {
      "inputs": [
        {
          "internalType": "uint256",
          "name": "_projectId",
          "type": "uint256"
        },
        {
          "internalType": "uint256",
          "name": "_optionId",
          "type": "uint256"
        },
        {
          "internalType": "uint256",
          "name": "_amount",
          "type": "uint256"
        }
      ],
      "name": "buyTicket",
      "outputs": [],
      "stateMutability": "nonpayable",
      "type": "function"
    },
    {
      "inputs": [
        {
          "internalType": "uint256",
          "name": "_orderId",
          "type": "uint256"
        }
      ],
      "name": "cancelSellOrder",
      "outputs": [],
      "stateMutability": "nonpayable",
      "type": "function"
    },
    {
      "inputs": [],
      "name": "claimEth",
      "outputs": [],
      "stateMutability": "nonpayable",
      "type": "function"
    },
    {
      "inputs": [
        {
          "internalType": "uint256",
          "name": "amount",
          "type": "uint256"
        }
      ],
      "name": "claimEthAsNotary",
      "outputs": [],
      "stateMutability": "nonpayable",
      "type": "function"
    },
    {
      "inputs": [
        {
          "internalType": "string",
          "name": "_title",
          "type": "string"
        },
        {
          "internalType": "string",
          "name": "_description",
          "type": "string"
        },
        {
          "internalType": "string[]",
          "name": "_options",
          "type": "string[]"
        },
        {
          "internalType": "uint256",
          "name": "_prizePool",
          "type": "uint256"
        },
        {
          "internalType": "uint256",
          "name": "_duration",
          "type": "uint256"
        }
      ],
      "name": "createProject",
      "outputs": [],
      "stateMutability": "nonpayable",
      "type": "function"
    },
    {
      "inputs": [
        {
          "internalType": "uint256",
          "name": "_ticketId",
          "type": "uint256"
        },
        {
          "internalType": "uint256",
          "name": "_price",
          "type": "uint256"
        }
      ],
      "name": "createSellOrder",
      "outputs": [],
      "stateMutability": "nonpayable",
      "type": "function"
    },
    {
      "inputs": [],
      "name": "depositEth",
      "outputs": [],
      "stateMutability": "payable",
      "type": "function"
    },
    {
      "inputs": [
        {
          "internalType": "uint256",
          "name": "_projectId",
          "type": "uint256"
        },
        {
          "internalType": "uint256",
          "name": "_winningOption",
          "type": "uint256"
        }
      ],
      "name": "finishProject",
      "outputs": [],
      "stateMutability": "nonpayable",
      "type": "function"
    },
    {
      "inputs": [
        {
          "internalType": "uint256",
          "name": "_projectId",
          "type": "uint256"
        }
      ],
      "name": "getActiveSellOrders",
      "outputs": [
        {
          "internalType": "uint256[]",
          "name": "orderIds",
          "type": "uint256[]"
        },
        {
          "components": [
            {
              "internalType": "uint256",
              "name": "ticketId",
              "type": "uint256"
            },
            {
              "internalType": "uint256",
              "name": "price",
              "type": "uint256"
            },
            {
              "internalType": "address",
              "name": "seller",
              "type": "address"
            },
            {
              "internalType": "bool",
              "name": "isActive",
              "type": "bool"
            }
          ],
          "internalType": "struct AdvancedLottery.SellOrder[]",
          "name": "orders",
          "type": "tuple[]"
        }
      ],
      "stateMutability": "view",
      "type": "function"
    },
    {
      "inputs": [
        {
          "internalType": "uint256",
          "name": "_projectId",
          "type": "uint256"
        }
      ],
      "name": "getProject",
      "outputs": [
        {
          "components": [
            {
              "internalType": "string",
              "name": "title",
              "type": "string"
            },
            {
              "internalType": "string",
              "name": "description",
              "type": "string"
            },
            {
              "internalType": "string[]",
              "name": "options",
              "type": "string[]"
            },
            {
              "internalType": "uint256",
              "name": "totalPrizePool",
              "type": "uint256"
            },
            {
              "internalType": "uint256",
              "name": "endTime",
              "type": "uint256"
            },
            {
              "internalType": "bool",
              "name": "isActive",
              "type": "bool"
            },
            {
              "internalType": "bool",
              "name": "isFinished",
              "type": "bool"
            },
            {
              "internalType": "uint256",
              "name": "winningOption",
              "type": "uint256"
            },
            {
              "internalType": "address",
              "name": "creator",
              "type": "address"
            },
            {
              "internalType": "uint256",
              "name": "createTime",
              "type": "uint256"
            },
            {
              "internalType": "bool",
              "name": "prizeDistributed",
              "type": "bool"
            }
          ],
          "internalType": "struct AdvancedLottery.Project",
          "name": "",
          "type": "tuple"
        }
      ],
      "stateMutability": "view",
      "type": "function"
    },
    {
      "inputs": [
        {
          "internalType": "uint256",
          "name": "_projectId",
          "type": "uint256"
        }
      ],
      "name": "getProjectBetAmounts",
      "outputs": [
        {
          "internalType": "uint256[]",
          "name": "",
          "type": "uint256[]"
        }
      ],
      "stateMutability": "view",
      "type": "function"
    },
    {
      "inputs": [
        {
          "internalType": "uint256",
          "name": "_projectId",
          "type": "uint256"
        }
      ],
      "name": "getProjectSellOrders",
      "outputs": [
        {
          "internalType": "uint256[]",
          "name": "",
          "type": "uint256[]"
        }
      ],
      "stateMutability": "view",
      "type": "function"
    },
    {
      "inputs": [
        {
          "internalType": "address",
          "name": "",
          "type": "address"
        }
      ],
      "name": "hasClaimedEth",
      "outputs": [
        {
          "internalType": "bool",
          "name": "",
          "type": "bool"
        }
      ],
      "stateMutability": "view",
      "type": "function"
    },
    {
      "inputs": [
        {
          "internalType": "address",
          "name": "user",
          "type": "address"
        }
      ],
      "name": "hasClaimedEthToken",
      "outputs": [
        {
          "internalType": "bool",
          "name": "",
          "type": "bool"
        }
      ],
      "stateMutability": "view",
      "type": "function"
    },
    {
      "inputs": [],
      "name": "lotteryTicket",
      "outputs": [
        {
          "internalType": "contract LotteryTicket",
          "name": "",
          "type": "address"
        }
      ],
      "stateMutability": "view",
      "type": "function"
    },
    {
      "inputs": [],
      "name": "lotteryToken",
      "outputs": [
        {
          "internalType": "contract LotteryToken",
          "name": "",
          "type": "address"
        }
      ],
      "stateMutability": "view",
      "type": "function"
    },
    {
      "inputs": [
        {
          "internalType": "uint256",
          "name": "",
          "type": "uint256"
        },
        {
          "internalType": "uint256",
          "name": "",
          "type": "uint256"
        }
      ],
      "name": "optionBetAmounts",
      "outputs": [
        {
          "internalType": "uint256",
          "name": "",
          "type": "uint256"
        }
      ],
      "stateMutability": "view",
      "type": "function"
    },
    {
      "inputs": [],
      "name": "orderCounter",
      "outputs": [
        {
          "internalType": "uint256",
          "name": "",
          "type": "uint256"
        }
      ],
      "stateMutability": "view",
      "type": "function"
    },
    {
      "inputs": [],
      "name": "owner",
      "outputs": [
        {
          "internalType": "address",
          "name": "",
          "type": "address"
        }
      ],
      "stateMutability": "view",
      "type": "function"
    },
    {
      "inputs": [],
      "name": "projectCounter",
      "outputs": [
        {
          "internalType": "uint256",
          "name": "",
          "type": "uint256"
        }
      ],
      "stateMutability": "view",
      "type": "function"
    },
    {
      "inputs": [
        {
          "internalType": "uint256",
          "name": "",
          "type": "uint256"
        },
        {
          "internalType": "uint256",
          "name": "",
          "type": "uint256"
        }
      ],
      "name": "projectSellOrders",
      "outputs": [
        {
          "internalType": "uint256",
          "name": "",
          "type": "uint256"
        }
      ],
      "stateMutability": "view",
      "type": "function"
    },
    {
      "inputs": [
        {
          "internalType": "uint256",
          "name": "",
          "type": "uint256"
        },
        {
          "internalType": "uint256",
          "name": "",
          "type": "uint256"
        }
      ],
      "name": "projectTickets",
      "outputs": [
        {
          "internalType": "uint256",
          "name": "",
          "type": "uint256"
        }
      ],
      "stateMutability": "view",
      "type": "function"
    },
    {
      "inputs": [
        {
          "internalType": "uint256",
          "name": "",
          "type": "uint256"
        }
      ],
      "name": "projects",
      "outputs": [
        {
          "internalType": "string",
          "name": "title",
          "type": "string"
        },
        {
          "internalType": "string",
          "name": "description",
          "type": "string"
        },
        {
          "internalType": "uint256",
          "name": "totalPrizePool",
          "type": "uint256"
        },
        {
          "internalType": "uint256",
          "name": "endTime",
          "type": "uint256"
        },
        {
          "internalType": "bool",
          "name": "isActive",
          "type": "bool"
        },
        {
          "internalType": "bool",
          "name": "isFinished",
          "type": "bool"
        },
        {
          "internalType": "uint256",
          "name": "winningOption",
          "type": "uint256"
        },
        {
          "internalType": "address",
          "name": "creator",
          "type": "address"
        },
        {
          "internalType": "uint256",
          "name": "createTime",
          "type": "uint256"
        },
        {
          "internalType": "bool",
          "name": "prizeDistributed",
          "type": "bool"
        }
      ],
      "stateMutability": "view",
      "type": "function"
    },
    {
      "inputs": [],
      "name": "renounceOwnership",
      "outputs": [],
      "stateMutability": "nonpayable",
      "type": "function"
    },
    {
      "inputs": [
        {
          "internalType": "uint256",
          "name": "",
          "type": "uint256"
        }
      ],
      "name": "sellOrders",
      "outputs": [
        {
          "internalType": "uint256",
          "name": "ticketId",
          "type": "uint256"
        },
        {
          "internalType": "uint256",
          "name": "price",
          "type": "uint256"
        },
        {
          "internalType": "address",
          "name": "seller",
          "type": "address"
        },
        {
          "internalType": "bool",
          "name": "isActive",
          "type": "bool"
        }
      ],
      "stateMutability": "view",
      "type": "function"
    },
    {
      "inputs": [
        {
          "internalType": "uint256",
          "name": "",
          "type": "uint256"
        }
      ],
      "name": "ticketActiveOrders",
      "outputs": [
        {
          "internalType": "uint256",
          "name": "",
          "type": "uint256"
        }
      ],
      "stateMutability": "view",
      "type": "function"
    },
    {
      "inputs": [
        {
          "internalType": "address",
          "name": "newOwner",
          "type": "address"
        }
      ],
      "name": "transferOwnership",
      "outputs": [],
      "stateMutability": "nonpayable",
      "type": "function"
    },
    {
      "stateMutability": "payable",
      "type": "receive"
    }
  ],
  "bytecode": "0x60806040523480156200001157600080fd5b506040516200347e3803806200347e83398101604081905262000034916200010a565b33806200005b57604051631e4fbdf760e01b81526000600482015260240160405180910390fd5b62000066816200009d565b5060018055600280546001600160a01b039384166001600160a01b0319918216179091556003805492909316911617905562000142565b600080546001600160a01b038381166001600160a01b0319831681178455604051919092169283917f8be0079c531659141344cd1fd0a4f28419497f9722a3daafe3b4186f6b6457e09190a35050565b80516001600160a01b03811681146200010557600080fd5b919050565b600080604083850312156200011e57600080fd5b6200012983620000ed565b91506200013960208401620000ed565b90509250929050565b61332c80620001526000396000f3fe6080604052600436106101bb5760003560e01c8063715018a6116100ec578063c4c6710d1161008a578063f0f3f2c811610064578063f0f3f2c81461059a578063f206c7aa146105c7578063f2fde38b146105e7578063f8a518ed1461060757600080fd5b8063c4c6710d14610522578063d05713bc14610542578063e8cfb3bb1461056257600080fd5b80639627ee69116100c65780639627ee69146104c4578063964a27d0146104e4578063b789bf52146104f7578063b7cdddcb1461050d57600080fd5b8063715018a61461045d5780638da5cb5b1461047257806394539467146104a457600080fd5b8063439370b1116101595780634e45c959116101335780634e45c959146103b2578063566e1b41146103e257806361952cd41461040f5780636e5932101461042f57600080fd5b8063439370b1146102fa578063491e00b0146103025780634a8393f31461033057600080fd5b80631a46e42a116101955780631a46e42a146102785780631d3487681461029a5780631df68102146102ba57806340da3549146102da57600080fd5b806309f4f808146101c7578063107046bd1461021557806317aff5101461024b57600080fd5b366101c257005b600080fd5b3480156101d357600080fd5b506102006101e2366004612a5c565b6001600160a01b031660009081526004602052604090205460ff1690565b60405190151581526020015b60405180910390f35b34801561022157600080fd5b50610235610230366004612a80565b61061d565b60405161020c9a99989796959493929190612adf565b34801561025757600080fd5b5061026b610266366004612a80565b61078f565b60405161020c9190612b8f565b34801561028457600080fd5b50610298610293366004612a80565b6107f1565b005b3480156102a657600080fd5b506102986102b5366004612a80565b6108c2565b3480156102c657600080fd5b506102986102d5366004612ba2565b610995565b3480156102e657600080fd5b5061026b6102f5366004612a80565b610db3565b6102986110f6565b34801561030e57600080fd5b5061032261031d366004612ba2565b611100565b60405190815260200161020c565b34801561033c57600080fd5b5061038161034b366004612a80565b6009602052600090815260409020805460018201546002909201549091906001600160a01b03811690600160a01b900460ff1684565b60405161020c949392919093845260208401929092526001600160a01b031660408301521515606082015260800190565b3480156103be57600080fd5b506102006103cd366004612a5c565b60046020526000908152604090205460ff1681565b3480156103ee57600080fd5b506103226103fd366004612a80565b600b6020526000908152604090205481565b34801561041b57600080fd5b5061029861042a366004612c7b565b611131565b34801561043b57600080fd5b5061044f61044a366004612a80565b611452565b60405161020c929190612d95565b34801561046957600080fd5b5061029861171f565b34801561047e57600080fd5b506000546001600160a01b03165b6040516001600160a01b03909116815260200161020c565b3480156104b057600080fd5b5060025461048c906001600160a01b031681565b3480156104d057600080fd5b506102986104df366004612ba2565b611731565b6102986104f2366004612a80565b611858565b34801561050357600080fd5b50610322600c5481565b34801561051957600080fd5b50610298611cf4565b34801561052e57600080fd5b5061029861053d366004612e16565b611e36565b34801561054e57600080fd5b5061032261055d366004612ba2565b612162565b34801561056e57600080fd5b5061032261057d366004612ba2565b600660209081526000928352604080842090915290825290205481565b3480156105a657600080fd5b506105ba6105b5366004612a80565b61217e565b60405161020c9190612e97565b3480156105d357600080fd5b5060035461048c906001600160a01b031681565b3480156105f357600080fd5b50610298610602366004612a5c565b61246f565b34801561061357600080fd5b5061032260085481565b60056020526000908152604090208054819061063890612f73565b80601f016020809104026020016040519081016040528092919081815260200182805461066490612f73565b80156106b15780601f10610686576101008083540402835291602001916106b1565b820191906000526020600020905b81548152906001019060200180831161069457829003601f168201915b5050505050908060010180546106c690612f73565b80601f01602080910402602001604051908101604052809291908181526020018280546106f290612f73565b801561073f5780601f106107145761010080835404028352916020019161073f565b820191906000526020600020905b81548152906001019060200180831161072257829003601f168201915b5050506003840154600485015460058601546006870154600788015460088901546009909901549798949793965060ff808416965061010090930483169491936001600160a01b0390911692168a565b6000818152600a60209081526040918290208054835181840281018401909452808452606093928301828280156107e557602002820191906000526020600020905b8154815260200190600101908083116107d1575b50505050509050919050565b600081815260096020526040902060028101546001600160a01b031633146108525760405162461bcd60e51b815260206004820152600f60248201526e2737ba1037b93232b91037bbb732b960891b60448201526064015b60405180910390fd5b6002810154600160a01b900460ff166108a05760405162461bcd60e51b815260206004820152601060248201526f4f72646572206e6f742061637469766560801b6044820152606401610849565b60028101805460ff60a01b19169055546000908152600b602052604081205550565b6108ca6124aa565b6108d26124d7565b804710156109225760405162461bcd60e51b815260206004820152601d60248201527f496e73756666696369656e7420636f6e74726163742062616c616e63650000006044820152606401610849565b604051339082156108fc029083906000818181858888f1935050505015801561094f573d6000803e3d6000fd5b5060408051338152602081018390527f0d7976053781e071cecf47e898ad2a6dc87621ca33734e96eb4b92453319e8c9910160405180910390a161099260018055565b50565b6003546040516331a9108f60e11b81526004810184905233916001600160a01b031690636352211e90602401602060405180830381865afa1580156109de573d6000803e3d6000fd5b505050506040513d601f19601f82011682018060405250810190610a029190612fad565b6001600160a01b031614610a4b5760405162461bcd60e51b815260206004820152601060248201526f2737ba103a34b1b5b2ba1037bbb732b960811b6044820152606401610849565b60035460405163020604bf60e21b81526004810184905230916001600160a01b03169063081812fc90602401602060405180830381865afa158015610a94573d6000803e3d6000fd5b505050506040513d601f19601f82011682018060405250810190610ab89190612fad565b6001600160a01b03161480610b3a575060035460405163e985e9c560e01b81523360048201523060248201526001600160a01b039091169063e985e9c590604401602060405180830381865afa158015610b16573d6000803e3d6000fd5b505050506040513d601f19601f82011682018060405250810190610b3a9190612fca565b610b565760405162461bcd60e51b815260040161084990612fec565b600354604051600162665f9d60e01b03198152600481018490526000916001600160a01b03169063ff99a0639060240160a060405180830381865afa158015610ba3573d6000803e3d6000fd5b505050506040513d601f19601f82011682018060405250810190610bc79190613033565b80516000908152600560208190526040909120908101549192509060ff168015610bfb57506005810154610100900460ff16155b610c175760405162461bcd60e51b8152600401610849906130ab565b6000848152600b60205260409020548015801590610c4d5750600081815260096020526040902060020154600160a01b900460ff165b15610cad5760008181526009602090815260409182902060010186905581518681523391810191909152869183917ff9ffc043f8a4fd096bc75e477fb7bb0283e20cb0614848a82347db8b246a91dc910160405180910390a35050505050565b600c805460009182610cbe836130ed565b90915550604080516080810182528881526020808201898152338385018181526001606086018181526000898152600987528881209751885594518783015591516002909601805492511515600160a01b026001600160a81b03199093166001600160a01b039790971696909617919091179094558b8252600b835284822086905589518252600a83528482208054948501815582529190209091018390559051919250879183917ff9ffc043f8a4fd096bc75e477fb7bb0283e20cb0614848a82347db8b246a91dc91610da3918a82526001600160a01b0316602082015260400190565b60405180910390a3505050505050565b606060006005600084815260200190815260200160002060405180610160016040529081600082018054610de690612f73565b80601f0160208091040260200160405190810160405280929190818152602001828054610e1290612f73565b8015610e5f5780601f10610e3457610100808354040283529160200191610e5f565b820191906000526020600020905b815481529060010190602001808311610e4257829003601f168201915b50505050508152602001600182018054610e7890612f73565b80601f0160208091040260200160405190810160405280929190818152602001828054610ea490612f73565b8015610ef15780601f10610ec657610100808354040283529160200191610ef1565b820191906000526020600020905b815481529060010190602001808311610ed457829003601f168201915b5050505050815260200160028201805480602002602001604051908101604052809291908181526020016000905b82821015610fcb578382906000526020600020018054610f3e90612f73565b80601f0160208091040260200160405190810160405280929190818152602001828054610f6a90612f73565b8015610fb75780601f10610f8c57610100808354040283529160200191610fb7565b820191906000526020600020905b815481529060010190602001808311610f9a57829003601f168201915b505050505081526020019060010190610f1f565b50505090825250600382015460208201526004820154604080830191909152600583015460ff8082161515606085015261010091829004811615156080850152600685015460a085015260078501546001600160a01b031660c0850152600885015460e0850152600990940154909316151592909101919091528101515190915060009067ffffffffffffffff81111561106757611067612bc4565b604051908082528060200260200182016040528015611090578160200160208202803683370190505b50905060005b8260400151518110156110ee57600085815260066020908152604080832084845290915290205482518390839081106110d1576110d1613106565b6020908102919091010152806110e6816130ed565b915050611096565b509392505050565b6110fe6124aa565b565b600a602052816000526040600020818154811061111c57600080fd5b90600052602060002001600091509150505481565b6111396124aa565b60028351101561118b5760405162461bcd60e51b815260206004820152601b60248201527f4174206c656173742032206f7074696f6e7320726571756972656400000000006044820152606401610849565b600082116111e55760405162461bcd60e51b815260206004820152602160248201527f5072697a6520706f6f6c206d7573742062652067726561746572207468616e206044820152600360fc1b6064820152608401610849565b6002546040516323b872dd60e01b81526001600160a01b03909116906323b872dd906112199033903090879060040161311c565b6020604051808303816000875af1158015611238573d6000803e3d6000fd5b505050506040513d601f19601f8201168201806040525081019061125c9190612fca565b6112b65760405162461bcd60e51b815260206004820152602560248201527f4661696c656420746f207472616e7366657220696e697469616c207072697a65604482015264081c1bdbdb60da1b6064820152608401610849565b60088054600091826112c7836130ed565b91905055905060405180610160016040528087815260200186815260200185815260200184815260200183426112fd9190613140565b8152600160208083019190915260006040808401829052606084018290523360808501524260a085015260c09093018190528481526005909152208151819061134690826131a7565b506020820151600182019061135b90826131a7565b506040820151805161137791600284019160209091019061298a565b50606082015160038201556080820151600482015560a082015160058201805460c085015161ffff1990911692151561ff00191692909217610100921515830217905560e083015160068301558201516007820180546001600160a01b0319166001600160a01b039092169190911790556101208201516008820155610140909101516009909101805460ff191691151591909117905560405181907fc0c54fed07481d0998e1446b2c13759606bf4f26b78306307413ac4c4309aa82906114429089903390613267565b60405180910390a2505050505050565b6060806000600a60008581526020019081526020016000208054806020026020016040519081016040528092919081815260200182805480156114b457602002820191906000526020600020905b8154815260200190600101908083116114a0575b505050505090506000805b825181101561152a57600960008483815181106114de576114de613106565b6020026020010151815260200190815260200160002060020160149054906101000a900460ff16156115185781611514816130ed565b9250505b80611522816130ed565b9150506114bf565b508067ffffffffffffffff81111561154457611544612bc4565b60405190808252806020026020018201604052801561156d578160200160208202803683370190505b5093508067ffffffffffffffff81111561158957611589612bc4565b6040519080825280602002602001820160405280156115db57816020015b6040805160808101825260008082526020808301829052928201819052606082015282526000199092019101816115a75790505b5092506000805b8351811015611716576009600085838151811061160157611601613106565b6020026020010151815260200190815260200160002060020160149054906101000a900460ff16156117045783818151811061163f5761163f613106565b602002602001015186838151811061165957611659613106565b6020026020010181815250506009600085838151811061167b5761167b613106565b6020908102919091018101518252818101929092526040908101600020815160808101835281548152600182015493810193909352600201546001600160a01b03811691830191909152600160a01b900460ff161515606082015285518690849081106116ea576116ea613106565b60200260200101819052508180611700906130ed565b9250505b8061170e816130ed565b9150506115e2565b50505050915091565b6117276124aa565b6110fe6000612501565b6117396124aa565b60008281526005602081905260409091209081015460ff16801561176757506005810154610100900460ff16155b6117ab5760405162461bcd60e51b8152602060048201526015602482015274496e76616c69642070726f6a65637420737461746560581b6044820152606401610849565b600281015482106117f75760405162461bcd60e51b815260206004820152601660248201527524b73b30b634b2103bb4b73734b7339037b83a34b7b760511b6044820152606401610849565b60058101805461ffff1916610100179055600681018290556118198383612551565b827f7d93966a5a08df5c2cb54f016f468b5b718b8b681205556c0571f7d1cfedbc7c8360405161184b91815260200190565b60405180910390a2505050565b6118606124d7565b60008181526009602052604090206002810154600160a01b900460ff166118bc5760405162461bcd60e51b815260206004820152601060248201526f4f72646572206e6f742061637469766560801b6044820152606401610849565b80600101543410156119075760405162461bcd60e51b8152602060048201526014602482015273125b9cdd59999a58da595b9d081c185e5b595b9d60621b6044820152606401610849565b6003548154604051600162665f9d60e01b0319815260048101919091526000916001600160a01b03169063ff99a0639060240160a060405180830381865afa158015611957573d6000803e3d6000fd5b505050506040513d601f19601f8201168201806040525081019061197b9190613033565b80516000908152600560208190526040909120908101549192509060ff1680156119af57506005810154610100900460ff16155b6119cb5760405162461bcd60e51b8152600401610849906130ab565b6002830180548454600186015460ff60a01b1983169093556000818152600b60205260408082209190915560035490516331a9108f60e11b8152600481018390526001600160a01b0393841694929385921690636352211e90602401602060405180830381865afa158015611a44573d6000803e3d6000fd5b505050506040513d601f19601f82011682018060405250810190611a689190612fad565b6001600160a01b031614611abe5760405162461bcd60e51b815260206004820152601d60248201527f53656c6c6572206973206e6f206c6f6e67657220746865206f776e65720000006044820152606401610849565b60035460405163020604bf60e21b81526004810184905230916001600160a01b03169063081812fc90602401602060405180830381865afa158015611b07573d6000803e3d6000fd5b505050506040513d601f19601f82011682018060405250810190611b2b9190612fad565b6001600160a01b03161480611baf575060035460405163e985e9c560e01b81526001600160a01b0385811660048301523060248301529091169063e985e9c590604401602060405180830381865afa158015611b8b573d6000803e3d6000fd5b505050506040513d601f19601f82011682018060405250810190611baf9190612fca565b611bcb5760405162461bcd60e51b815260040161084990612fec565b6003546040516323b872dd60e01b81526001600160a01b03909116906323b872dd90611bff9086903390879060040161311c565b600060405180830381600087803b158015611c1957600080fd5b505af1158015611c2d573d6000803e3d6000fd5b50506040516001600160a01b038616925083156108fc02915083906000818181858888f19350505050158015611c67573d6000803e3d6000fd5b5080341115611ca857336108fc611c7e8334613291565b6040518115909202916000818181858888f19350505050158015611ca6573d6000803e3d6000fd5b505b81877fe3b74443da83ac244e4695af01f47e1b8620be9691a2812103aa78686e150975853385604051611cdd9392919061311c565b60405180910390a350505050505061099260018055565b611cfc6124d7565b3360009081526004602052604090205460ff1615611d525760405162461bcd60e51b8152602060048201526013602482015272082d8e4cac2c8f240c6d8c2d2dacac8408aa89606b1b6044820152606401610849565b336000908152600460205260409020805460ff19166001179055670de0b6b3a764000047811115611dc55760405162461bcd60e51b815260206004820152601d60248201527f496e73756666696369656e7420636f6e74726163742062616c616e63650000006044820152606401610849565b604051339082156108fc029083906000818181858888f19350505050158015611df2573d6000803e3d6000fd5b5060408051338152602081018390527f0d7976053781e071cecf47e898ad2a6dc87621ca33734e96eb4b92453319e8c9910160405180910390a1506110fe60018055565b611e3e6124d7565b60008381526005602081905260409091209081015460ff168015611e6c57506005810154610100900460ff16155b611e885760405162461bcd60e51b8152600401610849906130ab565b80600401544210611ecb5760405162461bcd60e51b815260206004820152600d60248201526c141c9bda9958dd08195b991959609a1b6044820152606401610849565b60028101548310611f0f5760405162461bcd60e51b815260206004820152600e60248201526d24b73b30b634b21037b83a34b7b760911b6044820152606401610849565b60008211611f5f5760405162461bcd60e51b815260206004820152601d60248201527f416d6f756e74206d7573742062652067726561746572207468616e20300000006044820152606401610849565b6002546040516323b872dd60e01b81526001600160a01b03909116906323b872dd90611f939033903090879060040161311c565b6020604051808303816000875af1158015611fb2573d6000803e3d6000fd5b505050506040513d601f19601f82011682018060405250810190611fd69190612fca565b61201a5760405162461bcd60e51b8152602060048201526015602482015274151bdad95b881d1c985b9cd9995c8819985a5b1959605a1b6044820152606401610849565b6003546040516324a2b23760e11b81523360048201526024810186905260448101859052606481018490526000916001600160a01b031690634945646e906084016020604051808303816000875af115801561207a573d6000803e3d6000fd5b505050506040513d601f19601f8201168201806040525081019061209e91906132a4565b60008681526006602090815260408083208884529091528120805492935085929091906120cc908490613140565b92505081905550828260030160008282546120e79190613140565b90915550506000858152600760209081526040808320805460018101825590845292829020909201839055815186815290810185905233818301529051829187917f26a9b1281ee75a30c611181629c080b70b33d3043a4f01b420388c2736d389cb9181900360600190a3505061215d60018055565b505050565b6007602052816000526040600020818154811061111c57600080fd5b6121ea60405180610160016040528060608152602001606081526020016060815260200160008152602001600081526020016000151581526020016000151581526020016000815260200160006001600160a01b03168152602001600081526020016000151581525090565b600082815260056020526040908190208151610160810190925280548290829061221390612f73565b80601f016020809104026020016040519081016040528092919081815260200182805461223f90612f73565b801561228c5780601f106122615761010080835404028352916020019161228c565b820191906000526020600020905b81548152906001019060200180831161226f57829003601f168201915b505050505081526020016001820180546122a590612f73565b80601f01602080910402602001604051908101604052809291908181526020018280546122d190612f73565b801561231e5780601f106122f35761010080835404028352916020019161231e565b820191906000526020600020905b81548152906001019060200180831161230157829003601f168201915b5050505050815260200160028201805480602002602001604051908101604052809291908181526020016000905b828210156123f857838290600052602060002001805461236b90612f73565b80601f016020809104026020016040519081016040528092919081815260200182805461239790612f73565b80156123e45780601f106123b9576101008083540402835291602001916123e4565b820191906000526020600020905b8154815290600101906020018083116123c757829003601f168201915b50505050508152602001906001019061234c565b505050908252506003820154602082015260048201546040820152600582015460ff8082161515606084015261010091829004811615156080840152600684015460a084015260078401546001600160a01b031660c0840152600884015460e0840152600990930154909216151591015292915050565b6124776124aa565b6001600160a01b0381166124a157604051631e4fbdf760e01b815260006004820152602401610849565b61099281612501565b6000546001600160a01b031633146110fe5760405163118cdaa760e01b8152336004820152602401610849565b6002600154036124fa57604051633ee5aeb560e01b815260040160405180910390fd5b6002600155565b600080546001600160a01b038381166001600160a01b0319831681178455604051919092169283917f8be0079c531659141344cd1fd0a4f28419497f9722a3daafe3b4186f6b6457e09190a35050565b6000828152600560205260409020600981015460ff161561257157505050565b6000838152600760209081526040808320805482518185028101850190935280835291929091908301828280156125c757602002820191906000526020600020905b8154815260200190600101908083116125b3575b50505060008781526006602090815260408083208984529091528082205460025491516370a0823160e01b8152306004820152959650949193506001600160a01b031691506370a0823190602401602060405180830381865afa158015612632573d6000803e3d6000fd5b505050506040513d601f19601f8201168201806040525081019061265691906132a4565b905060008460030154821161266b5781612671565b84600301545b6040805189815260208101839052908101859052606081018490529091507f7b4cb6f7bc1975b4c9adc87c7c052a384b2ad39d20d90a7dd96b817d10c28a8a9060800160405180910390a1826000036126dc575050506009909101805460ff19166001179055505050565b60005b84518110156129715760008582815181106126fc576126fc613106565b6020908102919091010151600354604051600162665f9d60e01b03198152600481018390529192506000916001600160a01b039091169063ff99a0639060240160a060405180830381865afa158015612759573d6000803e3d6000fd5b505050506040513d601f19601f8201168201806040525081019061277d9190613033565b90508881602001510361295c5760008685836040015161279d91906132bd565b6127a791906132d4565b6003546040516331a9108f60e11b8152600481018690529192506000916001600160a01b0390911690636352211e90602401602060405180830381865afa1580156127f6573d6000803e3d6000fd5b505050506040513d601f19601f8201168201806040525081019061281a9190612fad565b905060008211801561289657506002546040516370a0823160e01b815230600482015283916001600160a01b0316906370a0823190602401602060405180830381865afa15801561286f573d6000803e3d6000fd5b505050506040513d601f19601f8201168201806040525081019061289391906132a4565b10155b156129595760025460405163a9059cbb60e01b81526001600160a01b038381166004830152602482018590529091169063a9059cbb906044016020604051808303816000875af11580156128ee573d6000803e3d6000fd5b505050506040513d601f19601f820116820180604052508101906129129190612fca565b50604080518381526001600160a01b038316602082015285918e917fe1659bd4084e211d07a2b2ffa6cf6c8ef403b3fec2226b3050f4134af48ae382910160405180910390a35b50505b50508080612969906130ed565b9150506126df565b5050506009909201805460ff1916600117905550505050565b8280548282559060005260206000209081019282156129d0579160200282015b828111156129d057825182906129c090826131a7565b50916020019190600101906129aa565b506129dc9291506129e0565b5090565b808211156129dc5760006129f482826129fd565b506001016129e0565b508054612a0990612f73565b6000825580601f10612a19575050565b601f01602090049060005260206000209081019061099291905b808211156129dc5760008155600101612a33565b6001600160a01b038116811461099257600080fd5b600060208284031215612a6e57600080fd5b8135612a7981612a47565b9392505050565b600060208284031215612a9257600080fd5b5035919050565b6000815180845260005b81811015612abf57602081850181015186830182015201612aa3565b506000602082860101526020601f19601f83011685010191505092915050565b6000610140808352612af38184018e612a99565b90508281036020840152612b07818d612a99565b604084019b909b5250506060810197909752941515608087015292151560a086015260c08501919091526001600160a01b031660e084015261010083015215156101209091015292915050565b600081518084526020808501945080840160005b83811015612b8457815187529582019590820190600101612b68565b509495945050505050565b602081526000612a796020830184612b54565b60008060408385031215612bb557600080fd5b50508035926020909101359150565b634e487b7160e01b600052604160045260246000fd5b604051601f8201601f1916810167ffffffffffffffff81118282101715612c0357612c03612bc4565b604052919050565b600082601f830112612c1c57600080fd5b813567ffffffffffffffff811115612c3657612c36612bc4565b612c49601f8201601f1916602001612bda565b818152846020838601011115612c5e57600080fd5b816020850160208301376000918101602001919091529392505050565b600080600080600060a08688031215612c9357600080fd5b853567ffffffffffffffff80821115612cab57600080fd5b612cb789838a01612c0b565b9650602091508188013581811115612cce57600080fd5b612cda8a828b01612c0b565b965050604088013581811115612cef57600080fd5b8801601f81018a13612d0057600080fd5b803582811115612d1257612d12612bc4565b8060051b612d21858201612bda565b918252828101850191858101908d841115612d3b57600080fd5b86850192505b83831015612d7757823586811115612d595760008081fd5b612d678f8983890101612c0b565b8352509186019190860190612d41565b9a9d999c50999a60608101359a506080013598975050505050505050565b60006040808352612da881840186612b54565b83810360208581019190915285518083528682019282019060005b81811015612e08578451805184528481015185850152868101516001600160a01b03168785015260609081015115159084015293830193608090920191600101612dc3565b509098975050505050505050565b600080600060608486031215612e2b57600080fd5b505081359360208301359350604090920135919050565b600081518084526020808501808196508360051b8101915082860160005b85811015612e8a578284038952612e78848351612a99565b98850198935090840190600101612e60565b5091979650505050505050565b6020815260008251610160806020850152612eb6610180850183612a99565b91506020850151601f1980868503016040870152612ed48483612a99565b9350604087015191508086850301606087015250612ef28382612e42565b92505060608501516080850152608085015160a085015260a0850151612f1c60c086018215159052565b5060c085015180151560e08601525060e085015161010085810191909152850151610120612f54818701836001600160a01b03169052565b8601516101408681019190915290950151151593019290925250919050565b600181811c90821680612f8757607f821691505b602082108103612fa757634e487b7160e01b600052602260045260246000fd5b50919050565b600060208284031215612fbf57600080fd5b8151612a7981612a47565b600060208284031215612fdc57600080fd5b81518015158114612a7957600080fd5b60208082526027908201527f436f6e7472616374206e6f7420617574686f72697a656420746f207472616e7360408201526619995c8813919560ca1b606082015260800190565b600060a0828403121561304557600080fd5b60405160a0810181811067ffffffffffffffff8211171561306857613068612bc4565b8060405250825181526020830151602082015260408301516040820152606083015161309381612a47565b60608201526080928301519281019290925250919050565b60208082526012908201527150726f6a656374206e6f742061637469766560701b604082015260600190565b634e487b7160e01b600052601160045260246000fd5b6000600182016130ff576130ff6130d7565b5060010190565b634e487b7160e01b600052603260045260246000fd5b6001600160a01b039384168152919092166020820152604081019190915260600190565b80820180821115613153576131536130d7565b92915050565b601f82111561215d57600081815260208120601f850160051c810160208610156131805750805b601f850160051c820191505b8181101561319f5782815560010161318c565b505050505050565b815167ffffffffffffffff8111156131c1576131c1612bc4565b6131d5816131cf8454612f73565b84613159565b602080601f83116001811461320a57600084156131f25750858301515b600019600386901b1c1916600185901b17855561319f565b600085815260208120601f198616915b828110156132395788860151825594840194600190910190840161321a565b50858210156132575787850151600019600388901b60f8161c191681555b5050505050600190811b01905550565b60408152600061327a6040830185612a99565b905060018060a01b03831660208301529392505050565b81810381811115613153576131536130d7565b6000602082840312156132b657600080fd5b5051919050565b8082028115828204841417613153576131536130d7565b6000826132f157634e487b7160e01b600052601260045260246000fd5b50049056fea2646970667358221220e133c0999f1e470483b7f2531f44fa53fbd2ba9e6883475a013868cd8f8a38ce64736f6c63430008140033",
  "linkReferences": {},
  "deployedLinkReferences": {}
}