{
  "_format": "hh-sol-artifact-1",
  "contractName": "LotteryTicket",
  "sourceName": "contracts/LotteryTicket.sol",
  "abi": [
    {
      "inputs": [],
      "stateMutability": "nonpayable",
      "type": "constructor"
    },
    {
      "inputs": [
        {
          "internalType": "address",
          "name": "sender",
          "type": "address"
        },
        {
          "internalType": "uint256",
          "name": "tokenId",
          "type": "uint256"
        },
        {
          "internalType": "address",
          "name": "owner",
          "type": "address"
        }
      ],
      "name": "ERC721IncorrectOwner",
      "type": "error"
    },
    {
      "inputs": [
        {
          "internalType": "address",
          "name": "operator",
          "type": "address"
        },
        {
          "internalType": "uint256",
          "name": "tokenId",
          "type": "uint256"
        }
      ],
      "name": "ERC721InsufficientApproval",
      "type": "error"
    },
    {
      "inputs": [
        {
          "internalType": "address",
          "name": "approver",
          "type": "address"
        }
      ],
      "name": "ERC721InvalidApprover",
      "type": "error"
    },
    {
      "inputs": [
        {
          "internalType": "address",
          "name": "operator",
          "type": "address"
        }
      ],
      "name": "ERC721InvalidOperator",
      "type": "error"
    },
    {
      "inputs": [
        {
          "internalType": "address",
          "name": "owner",
          "type": "address"
        }
      ],
      "name": "ERC721InvalidOwner",
      "type": "error"
    },
    {
      "inputs": [
        {
          "internalType": "address",
          "name": "receiver",
          "type": "address"
        }
      ],
      "name": "ERC721InvalidReceiver",
      "type": "error"
    },
    {
      "inputs": [
        {
          "internalType": "address",
          "name": "sender",
          "type": "address"
        }
      ],
      "name": "ERC721InvalidSender",
      "type": "error"
    },
    {
      "inputs": [
        {
          "internalType": "uint256",
          "name": "tokenId",
          "type": "uint256"
        }
      ],
      "name": "ERC721NonexistentToken",
      "type": "error"
    },
    {
      "inputs": [
        {
          "internalType": "address",
          "name": "owner",
          "type": "address"
        }
      ],
      "name": "OwnableInvalidOwner",
      "type": "error"
    },
    {
      "inputs": [
        {
          "internalType": "address",
          "name": "account",
          "type": "address"
        }
      ],
      "name": "OwnableUnauthorizedAccount",
      "type": "error"
    },
    {
      "anonymous": false,
      "inputs": [
        {
          "indexed": true,
          "internalType": "address",
          "name": "owner",
          "type": "address"
        },
        {
          "indexed": true,
          "internalType": "address",
          "name": "approved",
          "type": "address"
        },
        {
          "indexed": true,
          "internalType": "uint256",
          "name": "tokenId",
          "type": "uint256"
        }
      ],
      "name": "Approval",
      "type": "event"
    },
    {
      "anonymous": false,
      "inputs": [
        {
          "indexed": true,
          "internalType": "address",
          "name": "owner",
          "type": "address"
        },
        {
          "indexed": true,
          "internalType": "address",
          "name": "operator",
          "type": "address"
        },
        {
          "indexed": false,
          "internalType": "bool",
          "name": "approved",
          "type": "bool"
        }
      ],
      "name": "ApprovalForAll",
      "type": "event"
    },
    {
      "anonymous": false,
      "inputs": [
        {
          "indexed": false,
          "internalType": "uint256",
          "name": "_fromTokenId",
          "type": "uint256"
        },
        {
          "indexed": false,
          "internalType": "uint256",
          "name": "_toTokenId",
          "type": "uint256"
        }
      ],
      "name": "BatchMetadataUpdate",
      "type": "event"
    },
    {
      "anonymous": false,
      "inputs": [
        {
          "indexed": false,
          "internalType": "uint256",
          "name": "_tokenId",
          "type": "uint256"
        }
      ],
      "name": "MetadataUpdate",
      "type": "event"
    },
    {
      "anonymous": false,
      "inputs": [
        {
          "indexed": true,
          "internalType": "address",
          "name": "previousOwner",
          "type": "address"
        },
        {
          "indexed": true,
          "internalType": "address",
          "name": "newOwner",
          "type": "address"
        }
      ],
      "name": "OwnershipTransferred",
      "type": "event"
    },
    {
      "anonymous": false,
      "inputs": [
        {
          "indexed": true,
          "internalType": "address",
          "name": "from",
          "type": "address"
        },
        {
          "indexed": true,
          "internalType": "address",
          "name": "to",
          "type": "address"
        },
        {
          "indexed": true,
          "internalType": "uint256",
          "name": "tokenId",
          "type": "uint256"
        }
      ],
      "name": "Transfer",
      "type": "event"
    },
    {
      "inputs": [
        {
          "internalType": "address",
          "name": "to",
          "type": "address"
        },
        {
          "internalType": "uint256",
          "name": "tokenId",
          "type": "uint256"
        }
      ],
      "name": "approve",
      "outputs": [],
      "stateMutability": "nonpayable",
      "type": "function"
    },
    {
      "inputs": [
        {
          "internalType": "uint256",
          "name": "projectId",
          "type": "uint256"
        },
        {
          "internalType": "address",
          "name": "notary",
          "type": "address"
        }
      ],
      "name": "authorizeNotary",
      "outputs": [],
      "stateMutability": "nonpayable",
      "type": "function"
    },
    {
      "inputs": [
        {
          "internalType": "address",
          "name": "owner",
          "type": "address"
        }
      ],
      "name": "balanceOf",
      "outputs": [
        {
          "internalType": "uint256",
          "name": "",
          "type": "uint256"
        }
      ],
      "stateMutability": "view",
      "type": "function"
    },
    {
      "inputs": [
        {
          "internalType": "uint256",
          "name": "tokenId",
          "type": "uint256"
        }
      ],
      "name": "getApproved",
      "outputs": [
        {
          "internalType": "address",
          "name": "",
          "type": "address"
        }
      ],
      "stateMutability": "view",
      "type": "function"
    },
    {
      "inputs": [
        {
          "internalType": "uint256",
          "name": "tokenId",
          "type": "uint256"
        }
      ],
      "name": "getTicketInfo",
      "outputs": [
        {
          "components": [
            {
              "internalType": "uint256",
              "name": "projectId",
              "type": "uint256"
            },
            {
              "internalType": "uint256",
              "name": "optionId",
              "type": "uint256"
            },
            {
              "internalType": "uint256",
              "name": "betAmount",
              "type": "uint256"
            },
            {
              "internalType": "address",
              "name": "originalBuyer",
              "type": "address"
            },
            {
              "internalType": "uint256",
              "name": "purchaseTime",
              "type": "uint256"
            }
          ],
          "internalType": "struct LotteryTicket.TicketInfo",
          "name": "",
          "type": "tuple"
        }
      ],
      "stateMutability": "view",
      "type": "function"
    },
    {
      "inputs": [
        {
          "internalType": "address",
          "name": "owner",
          "type": "address"
        }
      ],
      "name": "getTicketsByOwner",
      "outputs": [
        {
          "internalType": "uint256[]",
          "name": "",
          "type": "uint256[]"
        }
      ],
      "stateMutability": "view",
      "type": "function"
    },
    {
      "inputs": [
        {
          "internalType": "address",
          "name": "",
          "type": "address"
        }
      ],
      "name": "globalMinters",
      "outputs": [
        {
          "internalType": "bool",
          "name": "",
          "type": "bool"
        }
      ],
      "stateMutability": "view",
      "type": "function"
    },
    {
      "inputs": [
        {
          "internalType": "address",
          "name": "owner",
          "type": "address"
        },
        {
          "internalType": "address",
          "name": "operator",
          "type": "address"
        }
      ],
      "name": "isApprovedForAll",
      "outputs": [
        {
          "internalType": "bool",
          "name": "",
          "type": "bool"
        }
      ],
      "stateMutability": "view",
      "type": "function"
    },
    {
      "inputs": [
        {
          "internalType": "address",
          "name": "to",
          "type": "address"
        },
        {
          "internalType": "uint256",
          "name": "projectId",
          "type": "uint256"
        },
        {
          "internalType": "uint256",
          "name": "optionId",
          "type": "uint256"
        },
        {
          "internalType": "uint256",
          "name": "betAmount",
          "type": "uint256"
        }
      ],
      "name": "mintTicket",
      "outputs": [
        {
          "internalType": "uint256",
          "name": "",
          "type": "uint256"
        }
      ],
      "stateMutability": "nonpayable",
      "type": "function"
    },
    {
      "inputs": [],
      "name": "name",
      "outputs": [
        {
          "internalType": "string",
          "name": "",
          "type": "string"
        }
      ],
      "stateMutability": "view",
      "type": "function"
    },
    {
      "inputs": [],
      "name": "owner",
      "outputs": [
        {
          "internalType": "address",
          "name": "",
          "type": "address"
        }
      ],
      "stateMutability": "view",
      "type": "function"
    },
    {
      "inputs": [
        {
          "internalType": "uint256",
          "name": "tokenId",
          "type": "uint256"
        }
      ],
      "name": "ownerOf",
      "outputs": [
        {
          "internalType": "address",
          "name": "",
          "type": "address"
        }
      ],
      "stateMutability": "view",
      "type": "function"
    },
    {
      "inputs": [
        {
          "internalType": "uint256",
          "name": "",
          "type": "uint256"
        },
        {
          "internalType": "address",
          "name": "",
          "type": "address"
        }
      ],
      "name": "projectNotaries",
      "outputs": [
        {
          "internalType": "bool",
          "name": "",
          "type": "bool"
        }
      ],
      "stateMutability": "view",
      "type": "function"
    },
    {
      "inputs": [],
      "name": "renounceOwnership",
      "outputs": [],
      "stateMutability": "nonpayable",
      "type": "function"
    },
    {
      "inputs": [
        {
          "internalType": "address",
          "name": "from",
          "type": "address"
        },
        {
          "internalType": "address",
          "name": "to",
          "type": "address"
        },
        {
          "internalType": "uint256",
          "name": "tokenId",
          "type": "uint256"
        }
      ],
      "name": "safeTransferFrom",
      "outputs": [],
      "stateMutability": "nonpayable",
      "type": "function"
    },
    {
      "inputs": [
        {
          "internalType": "address",
          "name": "from",
          "type": "address"
        },
        {
          "internalType": "address",
          "name": "to",
          "type": "address"
        },
        {
          "internalType": "uint256",
          "name": "tokenId",
          "type": "uint256"
        },
        {
          "internalType": "bytes",
          "name": "data",
          "type": "bytes"
        }
      ],
      "name": "safeTransferFrom",
      "outputs": [],
      "stateMutability": "nonpayable",
      "type": "function"
    },
    {
      "inputs": [
        {
          "internalType": "address",
          "name": "operator",
          "type": "address"
        },
        {
          "internalType": "bool",
          "name": "approved",
          "type": "bool"
        }
      ],
      "name": "setApprovalForAll",
      "outputs": [],
      "stateMutability": "nonpayable",
      "type": "function"
    },
    {
      "inputs": [
        {
          "internalType": "address",
          "name": "minter",
          "type": "address"
        },
        {
          "internalType": "bool",
          "name": "authorized",
          "type": "bool"
        }
      ],
      "name": "setGlobalMinter",
      "outputs": [],
      "stateMutability": "nonpayable",
      "type": "function"
    },
    {
      "inputs": [
        {
          "internalType": "bytes4",
          "name": "interfaceId",
          "type": "bytes4"
        }
      ],
      "name": "supportsInterface",
      "outputs": [
        {
          "internalType": "bool",
          "name": "",
          "type": "bool"
        }
      ],
      "stateMutability": "view",
      "type": "function"
    },
    {
      "inputs": [],
      "name": "symbol",
      "outputs": [
        {
          "internalType": "string",
          "name": "",
          "type": "string"
        }
      ],
      "stateMutability": "view",
      "type": "function"
    },
    {
      "inputs": [
        {
          "internalType": "uint256",
          "name": "",
          "type": "uint256"
        }
      ],
      "name": "ticketInfo",
      "outputs": [
        {
          "internalType": "uint256",
          "name": "projectId",
          "type": "uint256"
        },
        {
          "internalType": "uint256",
          "name": "optionId",
          "type": "uint256"
        },
        {
          "internalType": "uint256",
          "name": "betAmount",
          "type": "uint256"
        },
        {
          "internalType": "address",
          "name": "originalBuyer",
          "type": "address"
        },
        {
          "internalType": "uint256",
          "name": "purchaseTime",
          "type": "uint256"
        }
      ],
      "stateMutability": "view",
      "type": "function"
    },
    {
      "inputs": [
        {
          "internalType": "uint256",
          "name": "tokenId",
          "type": "uint256"
        }
      ],
      "name": "tokenURI",
      "outputs": [
        {
          "internalType": "string",
          "name": "",
          "type": "string"
        }
      ],
      "stateMutability": "view",
      "type": "function"
    },
    {
      "inputs": [
        {
          "internalType": "address",
          "name": "from",
          "type": "address"
        },
        {
          "internalType": "address",
          "name": "to",
          "type": "address"
        },
        {
          "internalType": "uint256",
          "name": "tokenId",
          "type": "uint256"
        }
      ],
      "name": "transferFrom",
      "outputs": [],
      "stateMutability": "nonpayable",
      "type": "function"
    },
    {
      "inputs": [
        {
          "internalType": "address",
          "name": "newOwner",
          "type": "address"
        }
      ],
      "name": "transferOwnership",
      "outputs": [],
      "stateMutability": "nonpayable",
      "type": "function"
    }
  ],
  "bytecode": "0x60806040523480156200001157600080fd5b50336040518060400160405280600d81526020016c131bdd1d195c9e551a58dad95d609a1b81525060405180604001604052806006815260200165151250d2d15560d21b8152508160009081620000699190620001b3565b506001620000788282620001b3565b5050506001600160a01b038116620000aa57604051631e4fbdf760e01b81526000600482015260240160405180910390fd5b620000b581620000bc565b506200027f565b600780546001600160a01b038381166001600160a01b0319831681179093556040519116919082907f8be0079c531659141344cd1fd0a4f28419497f9722a3daafe3b4186f6b6457e090600090a35050565b634e487b7160e01b600052604160045260246000fd5b600181811c908216806200013957607f821691505b6020821081036200015a57634e487b7160e01b600052602260045260246000fd5b50919050565b601f821115620001ae57600081815260208120601f850160051c81016020861015620001895750805b601f850160051c820191505b81811015620001aa5782815560010162000195565b5050505b505050565b81516001600160401b03811115620001cf57620001cf6200010e565b620001e781620001e0845462000124565b8462000160565b602080601f8311600181146200021f5760008415620002065750858301515b600019600386901b1c1916600185901b178555620001aa565b600085815260208120601f198616915b8281101562000250578886015182559484019460019091019084016200022f565b50858210156200026f5787850151600019600388901b60f8161c191681555b5050505050600190811b01905550565b6117fc806200028f6000396000f3fe608060405234801561001057600080fd5b50600436106101585760003560e01c80638da5cb5b116100c3578063c87b56dd1161007c578063c87b56dd14610312578063e985e9c514610325578063f080aa2414610338578063f2fde38b1461034b578063fa7130831461035e578063ff99a063146103d557600080fd5b80638da5cb5b1461028257806395d89b4114610293578063a22cb4651461029b578063b4c2025e146102ae578063b51d99ca146102d1578063b88d4fde146102ff57600080fd5b806342842e0e1161011557806342842e0e146102005780634945646e146102135780636352211e1461023457806367aa23e21461024757806370a0823114610267578063715018a61461027a57600080fd5b806301ffc9a71461015d578063033009db1461018557806306fdde031461019a578063081812fc146101af578063095ea7b3146101da57806323b872dd146101ed575b600080fd5b61017061016b36600461138f565b61042e565b60405190151581526020015b60405180910390f35b6101986101933660046113c8565b61043f565b005b6101a2610472565b60405161017c9190611454565b6101c26101bd366004611467565b610504565b6040516001600160a01b03909116815260200161017c565b6101986101e8366004611480565b61052d565b6101986101fb3660046114aa565b61053c565b61019861020e3660046114aa565b6105cc565b6102266102213660046114e6565b6105ec565b60405190815260200161017c565b6101c2610242366004611467565b610759565b61025a61025536600461151f565b610764565b60405161017c919061153a565b61022661027536600461151f565b610831565b610198610879565b6007546001600160a01b03166101c2565b6101a261088d565b6101986102a93660046113c8565b61089c565b6101706102bc36600461151f565b600b6020526000908152604090205460ff1681565b6101706102df36600461157e565b600a60209081526000928352604080842090915290825290205460ff1681565b61019861030d3660046115c0565b6108a7565b6101a2610320366004611467565b6108be565b61017061033336600461169c565b6108c9565b61019861034636600461157e565b6108f7565b61019861035936600461151f565b61092f565b6103a461036c366004611467565b600960205260009081526040902080546001820154600283015460038401546004909401549293919290916001600160a01b03169085565b604080519586526020860194909452928401919091526001600160a01b03166060830152608082015260a00161017c565b6103e86103e3366004611467565b61096d565b60405161017c91908151815260208083015190820152604080830151908201526060808301516001600160a01b0316908201526080918201519181019190915260a00190565b600061043982610a5b565b92915050565b610447610a80565b6001600160a01b03919091166000908152600b60205260409020805460ff1916911515919091179055565b606060008054610481906116c6565b80601f01602080910402602001604051908101604052809291908181526020018280546104ad906116c6565b80156104fa5780601f106104cf576101008083540402835291602001916104fa565b820191906000526020600020905b8154815290600101906020018083116104dd57829003601f168201915b5050505050905090565b600061050f82610aad565b506000828152600460205260409020546001600160a01b0316610439565b610538828233610ae6565b5050565b6001600160a01b03821661056b57604051633250574960e11b8152600060048201526024015b60405180910390fd5b6000610578838333610af3565b9050836001600160a01b0316816001600160a01b0316146105c6576040516364283d7b60e01b81526001600160a01b0380861660048301526024820184905282166044820152606401610562565b50505050565b6105e7838383604051806020016040528060008152506108a7565b505050565b6000838152600a6020908152604080832033845290915281205460ff168061061e57506007546001600160a01b031633145b8061066357506000848152600a60205260408120906106456007546001600160a01b031690565b6001600160a01b0316815260208101919091526040016000205460ff165b8061067d5750336000908152600b602052604090205460ff165b6106ba5760405162461bcd60e51b815260206004820152600e60248201526d139bdd08185d5d1a1bdc9a5e995960921b6044820152606401610562565b6008805490819060006106cc83611700565b91905055506106db8682610bec565b6040805160a08101825295865260208087019586528682019485526001600160a01b03978816606088019081524260808901908152600085815260099093529290912096518755945160018701559251600286015592516003850180546001600160a01b031916919096161790945551600490920191909155919050565b600061043982610aad565b6060600061077183610831565b905060008167ffffffffffffffff81111561078e5761078e6115aa565b6040519080825280602002602001820160405280156107b7578160200160208202803683370190505b5090506000805b600854811015610827576000818152600260205260409020546001600160a01b0387811691160361081557808383815181106107fc576107fc611727565b60209081029190910101528161081181611700565b9250505b8061081f81611700565b9150506107be565b5090949350505050565b60006001600160a01b03821661085d576040516322718ad960e21b815260006004820152602401610562565b506001600160a01b031660009081526003602052604090205490565b610881610a80565b61088b6000610c51565b565b606060018054610481906116c6565b610538338383610ca3565b6108b284848461053c565b6105c684848484610d42565b606061043982610e6b565b6001600160a01b03918216600090815260056020908152604080832093909416825291909152205460ff1690565b6108ff610a80565b6000918252600a602090815260408084206001600160a01b0390931684529190529020805460ff19166001179055565b610937610a80565b6001600160a01b03811661096157604051631e4fbdf760e01b815260006004820152602401610562565b61096a81610c51565b50565b6109a86040518060a0016040528060008152602001600081526020016000815260200160006001600160a01b03168152602001600081525090565b6000828152600260205260409020546001600160a01b0316610a035760405162461bcd60e51b8152602060048201526014602482015273151bdad95b88191bd95cc81b9bdd08195e1a5cdd60621b6044820152606401610562565b50600090815260096020908152604091829020825160a0810184528154815260018201549281019290925260028101549282019290925260038201546001600160a01b03166060820152600490910154608082015290565b60006001600160e01b03198216632483248360e11b1480610439575061043982610f7c565b6007546001600160a01b0316331461088b5760405163118cdaa760e01b8152336004820152602401610562565b6000818152600260205260408120546001600160a01b03168061043957604051637e27328960e01b815260048101849052602401610562565b6105e78383836001610fcc565b6000828152600260205260408120546001600160a01b0390811690831615610b2057610b208184866110d2565b6001600160a01b03811615610b5e57610b3d600085600080610fcc565b6001600160a01b038116600090815260036020526040902080546000190190555b6001600160a01b03851615610b8d576001600160a01b0385166000908152600360205260409020805460010190555b60008481526002602052604080822080546001600160a01b0319166001600160a01b0389811691821790925591518793918516917fddf252ad1be2c89b69c2b068fc378daa952ba7f163c4a11628f55a4df523b3ef91a4949350505050565b6001600160a01b038216610c1657604051633250574960e11b815260006004820152602401610562565b6000610c2483836000610af3565b90506001600160a01b038116156105e7576040516339e3563760e11b815260006004820152602401610562565b600780546001600160a01b038381166001600160a01b0319831681179093556040519116919082907f8be0079c531659141344cd1fd0a4f28419497f9722a3daafe3b4186f6b6457e090600090a35050565b6001600160a01b038216610cd557604051630b61174360e31b81526001600160a01b0383166004820152602401610562565b6001600160a01b03838116600081815260056020908152604080832094871680845294825291829020805460ff191686151590811790915591519182527f17307eab39ab6107e8899845ad3d59bd9653f200f220920489ca2b5937696c31910160405180910390a3505050565b6001600160a01b0383163b156105c657604051630a85bd0160e11b81526001600160a01b0384169063150b7a0290610d8490339088908790879060040161173d565b6020604051808303816000875af1925050508015610dbf575060408051601f3d908101601f19168201909252610dbc9181019061177a565b60015b610e28573d808015610ded576040519150601f19603f3d011682016040523d82523d6000602084013e610df2565b606091505b508051600003610e2057604051633250574960e11b81526001600160a01b0385166004820152602401610562565b805181602001fd5b6001600160e01b03198116630a85bd0160e11b14610e6457604051633250574960e11b81526001600160a01b0385166004820152602401610562565b5050505050565b6060610e7682610aad565b5060008281526006602052604081208054610e90906116c6565b80601f0160208091040260200160405190810160405280929190818152602001828054610ebc906116c6565b8015610f095780601f10610ede57610100808354040283529160200191610f09565b820191906000526020600020905b815481529060010190602001808311610eec57829003601f168201915b505050505090506000610f2760408051602081019091526000815290565b90508051600003610f39575092915050565b815115610f6b578082604051602001610f53929190611797565b60405160208183030381529060405292505050919050565b610f7484611136565b949350505050565b60006001600160e01b031982166380ac58cd60e01b1480610fad57506001600160e01b03198216635b5e139f60e01b145b8061043957506301ffc9a760e01b6001600160e01b0319831614610439565b8080610fe057506001600160a01b03821615155b156110a2576000610ff084610aad565b90506001600160a01b0383161580159061101c5750826001600160a01b0316816001600160a01b031614155b801561102f575061102d81846108c9565b155b156110585760405163a9fbf51f60e01b81526001600160a01b0384166004820152602401610562565b81156110a05783856001600160a01b0316826001600160a01b03167f8c5be1e5ebec7d5bd14f71427d1e84f3dd0314c0f7b2291e5b200ac8c7c3b92560405160405180910390a45b505b5050600090815260046020526040902080546001600160a01b0319166001600160a01b0392909216919091179055565b6110dd8383836111ab565b6105e7576001600160a01b03831661110b57604051637e27328960e01b815260048101829052602401610562565b60405163177e802f60e01b81526001600160a01b038316600482015260248101829052604401610562565b606061114182610aad565b50600061115960408051602081019091526000815290565b9050600081511161117957604051806020016040528060008152506111a4565b806111838461120e565b604051602001611194929190611797565b6040516020818303038152906040525b9392505050565b60006001600160a01b03831615801590610f745750826001600160a01b0316846001600160a01b031614806111e557506111e584846108c9565b80610f745750506000908152600460205260409020546001600160a01b03908116911614919050565b6060600061121b836112a1565b600101905060008167ffffffffffffffff81111561123b5761123b6115aa565b6040519080825280601f01601f191660200182016040528015611265576020820181803683370190505b5090508181016020015b600019016f181899199a1a9b1b9c1cb0b131b232b360811b600a86061a8153600a850494508461126f57509392505050565b60008072184f03e93ff9f4daa797ed6e38ed64bf6a1f0160401b83106112e05772184f03e93ff9f4daa797ed6e38ed64bf6a1f0160401b830492506040015b6d04ee2d6d415b85acef8100000000831061130c576d04ee2d6d415b85acef8100000000830492506020015b662386f26fc10000831061132a57662386f26fc10000830492506010015b6305f5e1008310611342576305f5e100830492506008015b612710831061135657612710830492506004015b60648310611368576064830492506002015b600a83106104395760010192915050565b6001600160e01b03198116811461096a57600080fd5b6000602082840312156113a157600080fd5b81356111a481611379565b80356001600160a01b03811681146113c357600080fd5b919050565b600080604083850312156113db57600080fd5b6113e4836113ac565b9150602083013580151581146113f957600080fd5b809150509250929050565b60005b8381101561141f578181015183820152602001611407565b50506000910152565b60008151808452611440816020860160208601611404565b601f01601f19169290920160200192915050565b6020815260006111a46020830184611428565b60006020828403121561147957600080fd5b5035919050565b6000806040838503121561149357600080fd5b61149c836113ac565b946020939093013593505050565b6000806000606084860312156114bf57600080fd5b6114c8846113ac565b92506114d6602085016113ac565b9150604084013590509250925092565b600080600080608085870312156114fc57600080fd5b611505856113ac565b966020860135965060408601359560600135945092505050565b60006020828403121561153157600080fd5b6111a4826113ac565b6020808252825182820181905260009190848201906040850190845b8181101561157257835183529284019291840191600101611556565b50909695505050505050565b6000806040838503121561159157600080fd5b823591506115a1602084016113ac565b90509250929050565b634e487b7160e01b600052604160045260246000fd5b600080600080608085870312156115d657600080fd5b6115df856113ac565b93506115ed602086016113ac565b925060408501359150606085013567ffffffffffffffff8082111561161157600080fd5b818701915087601f83011261162557600080fd5b813581811115611637576116376115aa565b604051601f8201601f19908116603f0116810190838211818310171561165f5761165f6115aa565b816040528281528a602084870101111561167857600080fd5b82602086016020830137600060208483010152809550505050505092959194509250565b600080604083850312156116af57600080fd5b6116b8836113ac565b91506115a1602084016113ac565b600181811c908216806116da57607f821691505b6020821081036116fa57634e487b7160e01b600052602260045260246000fd5b50919050565b60006001820161172057634e487b7160e01b600052601160045260246000fd5b5060010190565b634e487b7160e01b600052603260045260246000fd5b6001600160a01b038581168252841660208201526040810183905260806060820181905260009061177090830184611428565b9695505050505050565b60006020828403121561178c57600080fd5b81516111a481611379565b600083516117a9818460208801611404565b8351908301906117bd818360208801611404565b0194935050505056fea26469706673582212203c4ca876286d7f8b84901ecba60e83097d99af7213302bd890f2c8b752c06c4064736f6c63430008140033",
  "linkReferences": {},
  "deployedLinkReferences": {}
}